{
  "_format": "hh-sol-artifact-1",
  "contractName": "ENIADDigitalCertificate",
  "sourceName": "contracts/ENIADDigitalCertificate.sol",
  "abi": [
    {
      "inputs": [],
      "stateMutability": "nonpayable",
      "type": "constructor"
    },
    {
      "anonymous": false,
      "inputs": [
        {
          "indexed": true,
          "internalType": "bytes32",
          "name": "certificateHash",
          "type": "bytes32"
        },
        {
          "indexed": true,
          "internalType": "uint256",
          "name": "certificateId",
          "type": "uint256"
        },
        {
          "indexed": false,
          "internalType": "string",
          "name": "studentId",
          "type": "string"
        }
      ],
      "name": "CertificateIssued",
      "type": "event"
    },
    {
      "anonymous": false,
      "inputs": [
        {
          "indexed": true,
          "internalType": "bytes32",
          "name": "certificateHash",
          "type": "bytes32"
        },
        {
          "indexed": true,
          "internalType": "uint256",
          "name": "certificateId",
          "type": "uint256"
        }
      ],
      "name": "CertificateRevoked",
      "type": "event"
    },
    {
      "inputs": [],
      "name": "admin",
      "outputs": [
        {
          "internalType": "address",
          "name": "",
          "type": "address"
        }
      ],
      "stateMutability": "view",
      "type": "function"
    },
    {
      "inputs": [],
      "name": "certificateCount",
      "outputs": [
        {
          "internalType": "uint256",
          "name": "",
          "type": "uint256"
        }
      ],
      "stateMutability": "view",
      "type": "function"
    },
    {
      "inputs": [
        {
          "internalType": "uint256",
          "name": "",
          "type": "uint256"
        }
      ],
      "name": "certificateIds",
      "outputs": [
        {
          "internalType": "bytes32",
          "name": "",
          "type": "bytes32"
        }
      ],
      "stateMutability": "view",
      "type": "function"
    },
    {
      "inputs": [
        {
          "internalType": "bytes32",
          "name": "",
          "type": "bytes32"
        }
      ],
      "name": "certificates",
      "outputs": [
        {
          "internalType": "uint256",
          "name": "id",
          "type": "uint256"
        },
        {
          "internalType": "string",
          "name": "studentName",
          "type": "string"
        },
        {
          "internalType": "string",
          "name": "studentId",
          "type": "string"
        },
        {
          "internalType": "string",
          "name": "diploma",
          "type": "string"
        },
        {
          "internalType": "uint256",
          "name": "year",
          "type": "uint256"
        },
        {
          "internalType": "address",
          "name": "issuer",
          "type": "address"
        },
        {
          "internalType": "uint256",
          "name": "issuedAt",
          "type": "uint256"
        },
        {
          "internalType": "bool",
          "name": "isValid",
          "type": "bool"
        }
      ],
      "stateMutability": "view",
      "type": "function"
    },
    {
      "inputs": [
        {
          "internalType": "bytes32",
          "name": "_hash",
          "type": "bytes32"
        }
      ],
      "name": "getCertificateByHash",
      "outputs": [
        {
          "internalType": "bool",
          "name": "exists",
          "type": "bool"
        },
        {
          "components": [
            {
              "internalType": "uint256",
              "name": "id",
              "type": "uint256"
            },
            {
              "internalType": "string",
              "name": "studentName",
              "type": "string"
            },
            {
              "internalType": "string",
              "name": "studentId",
              "type": "string"
            },
            {
              "internalType": "string",
              "name": "diploma",
              "type": "string"
            },
            {
              "internalType": "uint256",
              "name": "year",
              "type": "uint256"
            },
            {
              "internalType": "address",
              "name": "issuer",
              "type": "address"
            },
            {
              "internalType": "uint256",
              "name": "issuedAt",
              "type": "uint256"
            },
            {
              "internalType": "bool",
              "name": "isValid",
              "type": "bool"
            }
          ],
          "internalType": "struct ENIADDigitalCertificate.Certificate",
          "name": "cert",
          "type": "tuple"
        }
      ],
      "stateMutability": "view",
      "type": "function"
    },
    {
      "inputs": [],
      "name": "getCertificateCount",
      "outputs": [
        {
          "internalType": "uint256",
          "name": "",
          "type": "uint256"
        }
      ],
      "stateMutability": "view",
      "type": "function"
    },
    {
      "inputs": [
        {
          "internalType": "string",
          "name": "_studentName",
          "type": "string"
        },
        {
          "internalType": "string",
          "name": "_studentId",
          "type": "string"
        },
        {
          "internalType": "string",
          "name": "_diploma",
          "type": "string"
        },
        {
          "internalType": "uint256",
          "name": "_year",
          "type": "uint256"
        }
      ],
      "name": "issueCertificate",
      "outputs": [
        {
          "internalType": "bytes32",
          "name": "",
          "type": "bytes32"
        }
      ],
      "stateMutability": "nonpayable",
      "type": "function"
    },
    {
      "inputs": [
        {
          "internalType": "uint256",
          "name": "_id",
          "type": "uint256"
        }
      ],
      "name": "revokeCertificate",
      "outputs": [],
      "stateMutability": "nonpayable",
      "type": "function"
    },
    {
      "inputs": [
        {
          "internalType": "bytes32",
          "name": "_hash",
          "type": "bytes32"
        }
      ],
      "name": "verifyCertificate",
      "outputs": [
        {
          "components": [
            {
              "internalType": "uint256",
              "name": "id",
              "type": "uint256"
            },
            {
              "internalType": "string",
              "name": "studentName",
              "type": "string"
            },
            {
              "internalType": "string",
              "name": "studentId",
              "type": "string"
            },
            {
              "internalType": "string",
              "name": "diploma",
              "type": "string"
            },
            {
              "internalType": "uint256",
              "name": "year",
              "type": "uint256"
            },
            {
              "internalType": "address",
              "name": "issuer",
              "type": "address"
            },
            {
              "internalType": "uint256",
              "name": "issuedAt",
              "type": "uint256"
            },
            {
              "internalType": "bool",
              "name": "isValid",
              "type": "bool"
            }
          ],
          "internalType": "struct ENIADDigitalCertificate.Certificate",
          "name": "",
          "type": "tuple"
        }
      ],
      "stateMutability": "view",
      "type": "function"
    },
    {
      "inputs": [
        {
          "internalType": "uint256",
          "name": "_id",
          "type": "uint256"
        }
      ],
      "name": "verifyCertificateById",
      "outputs": [
        {
          "components": [
            {
              "internalType": "uint256",
              "name": "id",
              "type": "uint256"
            },
            {
              "internalType": "string",
              "name": "studentName",
              "type": "string"
            },
            {
              "internalType": "string",
              "name": "studentId",
              "type": "string"
            },
            {
              "internalType": "string",
              "name": "diploma",
              "type": "string"
            },
            {
              "internalType": "uint256",
              "name": "year",
              "type": "uint256"
            },
            {
              "internalType": "address",
              "name": "issuer",
              "type": "address"
            },
            {
              "internalType": "uint256",
              "name": "issuedAt",
              "type": "uint256"
            },
            {
              "internalType": "bool",
              "name": "isValid",
              "type": "bool"
            }
          ],
          "internalType": "struct ENIADDigitalCertificate.Certificate",
          "name": "",
          "type": "tuple"
        }
      ],
      "stateMutability": "view",
      "type": "function"
    }
  ],
  "bytecode": "0x608060405234801561001057600080fd5b50600080546001600160a01b031916331790556113c6806100326000396000f3fe608060405234801561001057600080fd5b506004361061009e5760003560e01c8063742f068811610066578063742f068814610127578063850c17681461014e5780638809f7271461016157806390ab95cb14610169578063f851a4401461018a57600080fd5b806306f5497e146100a35780630f9c774d146100b85780631bfbd6b2146100eb57806349e27a17146100fe57806352d7b89c1461011e575b600080fd5b6100b66100b1366004610e42565b6101b5565b005b6100d86100c6366004610e42565b60036020526000908152604090205481565b6040519081526020015b60405180910390f35b6100d86100f9366004610efe565b6102fc565b61011161010c366004610e42565b610524565b6040516100e29190611076565b6100d860015481565b61013a610135366004610e42565b610789565b6040516100e2989796959493929190611090565b61011161015c366004610e42565b610970565b6001546100d8565b61017c610177366004610e42565b610bc5565b6040516100e2929190611105565b60005461019d906001600160a01b031681565b6040516001600160a01b0390911681526020016100e2565b6000546001600160a01b031633146101e85760405162461bcd60e51b81526004016101df90611128565b60405180910390fd5b60008181526003602090815260408083205480845260029092528220549091036102545760405162461bcd60e51b815260206004820152601a60248201527f436572746966696361746520646f6573206e6f7420657869737400000000000060448201526064016101df565b60008181526002602052604090206007015460ff166102b55760405162461bcd60e51b815260206004820152601e60248201527f436572746966696361746520697320616c7265616479207265766f6b6564000060448201526064016101df565b600081815260026020526040808220600701805460ff1916905551839183917fba2ff7aceccd1742d00e386f05d483c89cbb4e8ebf02234c436df1ec854261fd9190a35050565b600080546001600160a01b031633146103275760405162461bcd60e51b81526004016101df90611128565b600180549060006103378361116a565b9091555050600154604051429033906000906103619085908b908b908b908b908990602001611191565b60408051601f1981840301815291815281516020928301206000818152600290935291206007015490915060ff16156103dc5760405162461bcd60e51b815260206004820152601a60248201527f436572746966696361746520616c72656164792065786973747300000000000060448201526064016101df565b604080516101008101825285815260208082018c81528284018c9052606083018b9052608083018a90526001600160a01b03861660a084015260c08301879052600160e084018190526000868152600290935293909120825181559051919283929082019061044b9082611275565b50604082015160028201906104609082611275565b50606082015160038201906104759082611275565b506080820151600482015560a08201516005820180546001600160a01b0319166001600160a01b0390921691909117905560c0820151600682015560e0909101516007909101805460ff19169115159190911790556000858152600360205260409081902083905551859083907f52ff540644d3ca4a69d1eb5a9736673fccd2d5f33f3a3258ebabcb0c35f792729061050f908d90611335565b60405180910390a35098975050505050505050565b61052c610df2565b60008281526003602090815260408083205480845260029092529091206007015460ff1661056c5760405162461bcd60e51b81526004016101df90611348565b6002600082815260200190815260200160002060405180610100016040529081600082015481526020016001820180546105a5906111ec565b80601f01602080910402602001604051908101604052809291908181526020018280546105d1906111ec565b801561061e5780601f106105f35761010080835404028352916020019161061e565b820191906000526020600020905b81548152906001019060200180831161060157829003601f168201915b50505050508152602001600282018054610637906111ec565b80601f0160208091040260200160405190810160405280929190818152602001828054610663906111ec565b80156106b05780601f10610685576101008083540402835291602001916106b0565b820191906000526020600020905b81548152906001019060200180831161069357829003601f168201915b505050505081526020016003820180546106c9906111ec565b80601f01602080910402602001604051908101604052809291908181526020018280546106f5906111ec565b80156107425780601f1061071757610100808354040283529160200191610742565b820191906000526020600020905b81548152906001019060200180831161072557829003601f168201915b50505091835250506004820154602082015260058201546001600160a01b031660408201526006820154606082015260079091015460ff1615156080909101529392505050565b600260205260009081526040902080546001820180549192916107ab906111ec565b80601f01602080910402602001604051908101604052809291908181526020018280546107d7906111ec565b80156108245780601f106107f957610100808354040283529160200191610824565b820191906000526020600020905b81548152906001019060200180831161080757829003601f168201915b505050505090806002018054610839906111ec565b80601f0160208091040260200160405190810160405280929190818152602001828054610865906111ec565b80156108b25780601f10610887576101008083540402835291602001916108b2565b820191906000526020600020905b81548152906001019060200180831161089557829003601f168201915b5050505050908060030180546108c7906111ec565b80601f01602080910402602001604051908101604052809291908181526020018280546108f3906111ec565b80156109405780601f1061091557610100808354040283529160200191610940565b820191906000526020600020905b81548152906001019060200180831161092357829003601f168201915b50505050600483015460058401546006850154600790950154939491936001600160a01b03909116925060ff1688565b610978610df2565b60008281526002602052604090206007015460ff166109a95760405162461bcd60e51b81526004016101df90611348565b6002600083815260200190815260200160002060405180610100016040529081600082015481526020016001820180546109e2906111ec565b80601f0160208091040260200160405190810160405280929190818152602001828054610a0e906111ec565b8015610a5b5780601f10610a3057610100808354040283529160200191610a5b565b820191906000526020600020905b815481529060010190602001808311610a3e57829003601f168201915b50505050508152602001600282018054610a74906111ec565b80601f0160208091040260200160405190810160405280929190818152602001828054610aa0906111ec565b8015610aed5780601f10610ac257610100808354040283529160200191610aed565b820191906000526020600020905b815481529060010190602001808311610ad057829003601f168201915b50505050508152602001600382018054610b06906111ec565b80601f0160208091040260200160405190810160405280929190818152602001828054610b32906111ec565b8015610b7f5780601f10610b5457610100808354040283529160200191610b7f565b820191906000526020600020905b815481529060010190602001808311610b6257829003601f168201915b50505091835250506004820154602082015260058201546001600160a01b031660408201526006820154606082015260079091015460ff16151560809091015292915050565b6000610bcf610df2565b600260008481526020019081526020016000206040518061010001604052908160008201548152602001600182018054610c08906111ec565b80601f0160208091040260200160405190810160405280929190818152602001828054610c34906111ec565b8015610c815780601f10610c5657610100808354040283529160200191610c81565b820191906000526020600020905b815481529060010190602001808311610c6457829003601f168201915b50505050508152602001600282018054610c9a906111ec565b80601f0160208091040260200160405190810160405280929190818152602001828054610cc6906111ec565b8015610d135780601f10610ce857610100808354040283529160200191610d13565b820191906000526020600020905b815481529060010190602001808311610cf657829003601f168201915b50505050508152602001600382018054610d2c906111ec565b80601f0160208091040260200160405190810160405280929190818152602001828054610d58906111ec565b8015610da55780601f10610d7a57610100808354040283529160200191610da5565b820191906000526020600020905b815481529060010190602001808311610d8857829003601f168201915b50505091835250506004820154602082015260058201546001600160a01b031660408201526006820154606082015260079091015460ff1615156080909101528051151594909350915050565b604051806101000160405280600081526020016060815260200160608152602001606081526020016000815260200160006001600160a01b03168152602001600081526020016000151581525090565b600060208284031215610e5457600080fd5b5035919050565b634e487b7160e01b600052604160045260246000fd5b600082601f830112610e8257600080fd5b813567ffffffffffffffff80821115610e9d57610e9d610e5b565b604051601f8301601f19908116603f01168101908282118183101715610ec557610ec5610e5b565b81604052838152866020858801011115610ede57600080fd5b836020870160208301376000602085830101528094505050505092915050565b60008060008060808587031215610f1457600080fd5b843567ffffffffffffffff80821115610f2c57600080fd5b610f3888838901610e71565b95506020870135915080821115610f4e57600080fd5b610f5a88838901610e71565b94506040870135915080821115610f7057600080fd5b50610f7d87828801610e71565b949793965093946060013593505050565b60005b83811015610fa9578181015183820152602001610f91565b50506000910152565b60008151808452610fca816020860160208601610f8e565b601f01601f19169290920160200192915050565b6000610100825184526020830151816020860152610ffe82860182610fb2565b915050604083015184820360408601526110188282610fb2565b915050606083015184820360608601526110328282610fb2565b9150506080830151608085015260018060a01b0360a08401511660a085015260c083015160c085015260e083015161106e60e086018215159052565b509392505050565b6020815260006110896020830184610fde565b9392505050565b60006101008a83528060208401526110aa8184018b610fb2565b905082810360408401526110be818a610fb2565b905082810360608401526110d28189610fb2565b608084019790975250506001600160a01b039390931660a084015260c0830191909152151560e090910152949350505050565b82151581526040602082015260006111206040830184610fde565b949350505050565b60208082526022908201527f4f6e6c792061646d696e2063616e20706572666f726d2074686973206163746960408201526137b760f11b606082015260800190565b60006001820161118a57634e487b7160e01b600052601160045260246000fd5b5060010190565b8681526000602087516111a981838601848c01610f8e565b8751908401906111be81848401858c01610f8e565b87519101906111d281848401858b01610f8e565b019081019490945250506040820152606001949350505050565b600181811c9082168061120057607f821691505b60208210810361122057634e487b7160e01b600052602260045260246000fd5b50919050565b601f82111561127057600081815260208120601f850160051c8101602086101561124d5750805b601f850160051c820191505b8181101561126c57828155600101611259565b5050505b505050565b815167ffffffffffffffff81111561128f5761128f610e5b565b6112a38161129d84546111ec565b84611226565b602080601f8311600181146112d857600084156112c05750858301515b600019600386901b1c1916600185901b17855561126c565b600085815260208120601f198616915b82811015611307578886015182559484019460019091019084016112e8565b50858210156113255787850151600019600388901b60f8161c191681555b5050505050600190811b01905550565b6020815260006110896020830184610fb2565b60208082526028908201527f436572746966696361746520646f6573206e6f74206578697374206f72206973604082015267081a5b9d985b1a5960c21b60608201526080019056fea2646970667358221220c6210cdad109fa197437a685ff0fa7dbddd59850027b9400ecd369e4bb15b76164736f6c63430008140033",
  "linkReferences": {},
  "deployedLinkReferences": {}
}