{
  "_format": "hh-sol-artifact-1",
  "contractName": "ENIADDigitalCertificate",
  "sourceName": "contracts/ENIADDigitalCertificate.sol",
  "abi": [
    {
      "inputs": [],
      "stateMutability": "nonpayable",
      "type": "constructor"
    },
    {
      "anonymous": false,
      "inputs": [
        {
          "indexed": true,
          "internalType": "bytes32",
          "name": "certificateHash",
          "type": "bytes32"
        },
        {
          "indexed": true,
          "internalType": "uint256",
          "name": "certificateId",
          "type": "uint256"
        },
        {
          "indexed": false,
          "internalType": "string",
          "name": "studentId",
          "type": "string"
        }
      ],
      "name": "CertificateIssued",
      "type": "event"
    },
    {
      "inputs": [],
      "name": "admin",
      "outputs": [
        {
          "internalType": "address",
          "name": "",
          "type": "address"
        }
      ],
      "stateMutability": "view",
      "type": "function"
    },
    {
      "inputs": [],
      "name": "certificateCount",
      "outputs": [
        {
          "internalType": "uint256",
          "name": "",
          "type": "uint256"
        }
      ],
      "stateMutability": "view",
      "type": "function"
    },
    {
      "inputs": [
        {
          "internalType": "uint256",
          "name": "",
          "type": "uint256"
        }
      ],
      "name": "certificateIds",
      "outputs": [
        {
          "internalType": "bytes32",
          "name": "",
          "type": "bytes32"
        }
      ],
      "stateMutability": "view",
      "type": "function"
    },
    {
      "inputs": [
        {
          "internalType": "bytes32",
          "name": "",
          "type": "bytes32"
        }
      ],
      "name": "certificates",
      "outputs": [
        {
          "internalType": "uint256",
          "name": "id",
          "type": "uint256"
        },
        {
          "internalType": "string",
          "name": "studentName",
          "type": "string"
        },
        {
          "internalType": "string",
          "name": "studentId",
          "type": "string"
        },
        {
          "internalType": "string",
          "name": "diploma",
          "type": "string"
        },
        {
          "internalType": "uint256",
          "name": "year",
          "type": "uint256"
        },
        {
          "internalType": "address",
          "name": "issuer",
          "type": "address"
        },
        {
          "internalType": "uint256",
          "name": "issuedAt",
          "type": "uint256"
        },
        {
          "internalType": "bool",
          "name": "isValid",
          "type": "bool"
        }
      ],
      "stateMutability": "view",
      "type": "function"
    },
    {
      "inputs": [
        {
          "internalType": "string",
          "name": "_studentName",
          "type": "string"
        },
        {
          "internalType": "string",
          "name": "_studentId",
          "type": "string"
        },
        {
          "internalType": "string",
          "name": "_diploma",
          "type": "string"
        },
        {
          "internalType": "uint256",
          "name": "_year",
          "type": "uint256"
        }
      ],
      "name": "issueCertificate",
      "outputs": [
        {
          "internalType": "bytes32",
          "name": "",
          "type": "bytes32"
        }
      ],
      "stateMutability": "nonpayable",
      "type": "function"
    },
    {
      "inputs": [
        {
          "internalType": "bytes32",
          "name": "_hash",
          "type": "bytes32"
        }
      ],
      "name": "verifyCertificate",
      "outputs": [
        {
          "components": [
            {
              "internalType": "uint256",
              "name": "id",
              "type": "uint256"
            },
            {
              "internalType": "string",
              "name": "studentName",
              "type": "string"
            },
            {
              "internalType": "string",
              "name": "studentId",
              "type": "string"
            },
            {
              "internalType": "string",
              "name": "diploma",
              "type": "string"
            },
            {
              "internalType": "uint256",
              "name": "year",
              "type": "uint256"
            },
            {
              "internalType": "address",
              "name": "issuer",
              "type": "address"
            },
            {
              "internalType": "uint256",
              "name": "issuedAt",
              "type": "uint256"
            },
            {
              "internalType": "bool",
              "name": "isValid",
              "type": "bool"
            }
          ],
          "internalType": "struct ENIADDigitalCertificate.Certificate",
          "name": "",
          "type": "tuple"
        }
      ],
      "stateMutability": "view",
      "type": "function"
    },
    {
      "inputs": [
        {
          "internalType": "uint256",
          "name": "_id",
          "type": "uint256"
        }
      ],
      "name": "verifyCertificateById",
      "outputs": [
        {
          "components": [
            {
              "internalType": "uint256",
              "name": "id",
              "type": "uint256"
            },
            {
              "internalType": "string",
              "name": "studentName",
              "type": "string"
            },
            {
              "internalType": "string",
              "name": "studentId",
              "type": "string"
            },
            {
              "internalType": "string",
              "name": "diploma",
              "type": "string"
            },
            {
              "internalType": "uint256",
              "name": "year",
              "type": "uint256"
            },
            {
              "internalType": "address",
              "name": "issuer",
              "type": "address"
            },
            {
              "internalType": "uint256",
              "name": "issuedAt",
              "type": "uint256"
            },
            {
              "internalType": "bool",
              "name": "isValid",
              "type": "bool"
            }
          ],
          "internalType": "struct ENIADDigitalCertificate.Certificate",
          "name": "",
          "type": "tuple"
        }
      ],
      "stateMutability": "view",
      "type": "function"
    }
  ],
  "bytecode": "0x608060405234801561001057600080fd5b50336000806101000a81548173ffffffffffffffffffffffffffffffffffffffff021916908373ffffffffffffffffffffffffffffffffffffffff16021790555061191c806100606000396000f3fe608060405234801561001057600080fd5b506004361061007d5760003560e01c806352d7b89c1161005b57806352d7b89c14610112578063742f068814610130578063850c176814610167578063f851a440146101975761007d565b80630f9c774d146100825780631bfbd6b2146100b257806349e27a17146100e2575b600080fd5b61009c60048036038101906100979190610d59565b6101b5565b6040516100a99190610d9f565b60405180910390f35b6100cc60048036038101906100c79190610f00565b6101cd565b6040516100d99190610d9f565b60405180910390f35b6100fc60048036038101906100f79190610d59565b6104b6565b6040516101099190611163565b60405180910390f35b61011a6107a5565b6040516101279190611194565b60405180910390f35b61014a600480360381019061014591906111db565b6107ab565b60405161015e989796959493929190611270565b60405180910390f35b610181600480360381019061017c91906111db565b6109b8565b60405161018e9190611163565b60405180910390f35b61019f610c8e565b6040516101ac9190611303565b60405180910390f35b60036020528060005260406000206000915090505481565b60008060009054906101000a900473ffffffffffffffffffffffffffffffffffffffff1673ffffffffffffffffffffffffffffffffffffffff163373ffffffffffffffffffffffffffffffffffffffff161461025e576040517f08c379a000000000000000000000000000000000000000000000000000000000815260040161025590611390565b60405180910390fd5b60016000815480929190610271906113df565b9190505550600060015490506000429050600033905060008389898989876040516020016102a496959493929190611484565b6040516020818303038152906040528051906020012090506002600082815260200190815260200160002060070160009054906101000a900460ff1615610320576040517f08c379a000000000000000000000000000000000000000000000000000000000815260040161031790611534565b60405180910390fd5b60006040518061010001604052808681526020018b81526020018a81526020018981526020018881526020018473ffffffffffffffffffffffffffffffffffffffff16815260200185815260200160011515815250905080600260008481526020019081526020016000206000820151816000015560208201518160010190816103aa9190611760565b5060408201518160020190816103c09190611760565b5060608201518160030190816103d69190611760565b506080820151816004015560a08201518160050160006101000a81548173ffffffffffffffffffffffffffffffffffffffff021916908373ffffffffffffffffffffffffffffffffffffffff16021790555060c0820151816006015560e08201518160070160006101000a81548160ff02191690831515021790555090505081600360008781526020019081526020016000208190555084827f52ff540644d3ca4a69d1eb5a9736673fccd2d5f33f3a3258ebabcb0c35f792728b60405161049e9190611832565b60405180910390a38195505050505050949350505050565b6104be610cb2565b6000600360008481526020019081526020016000205490506002600082815260200190815260200160002060070160009054906101000a900460ff16610539576040517f08c379a0000000000000000000000000000000000000000000000000000000008152600401610530906118c6565b60405180910390fd5b60026000828152602001908152602001600020604051806101000160405290816000820154815260200160018201805461057290611583565b80601f016020809104026020016040519081016040528092919081815260200182805461059e90611583565b80156105eb5780601f106105c0576101008083540402835291602001916105eb565b820191906000526020600020905b8154815290600101906020018083116105ce57829003601f168201915b5050505050815260200160028201805461060490611583565b80601f016020809104026020016040519081016040528092919081815260200182805461063090611583565b801561067d5780601f106106525761010080835404028352916020019161067d565b820191906000526020600020905b81548152906001019060200180831161066057829003601f168201915b5050505050815260200160038201805461069690611583565b80601f01602080910402602001604051908101604052809291908181526020018280546106c290611583565b801561070f5780601f106106e45761010080835404028352916020019161070f565b820191906000526020600020905b8154815290600101906020018083116106f257829003601f168201915b50505050508152602001600482015481526020016005820160009054906101000a900473ffffffffffffffffffffffffffffffffffffffff1673ffffffffffffffffffffffffffffffffffffffff1673ffffffffffffffffffffffffffffffffffffffff168152602001600682015481526020016007820160009054906101000a900460ff161515151581525050915050919050565b60015481565b60026020528060005260406000206000915090508060000154908060010180546107d490611583565b80601f016020809104026020016040519081016040528092919081815260200182805461080090611583565b801561084d5780601f106108225761010080835404028352916020019161084d565b820191906000526020600020905b81548152906001019060200180831161083057829003601f168201915b50505050509080600201805461086290611583565b80601f016020809104026020016040519081016040528092919081815260200182805461088e90611583565b80156108db5780601f106108b0576101008083540402835291602001916108db565b820191906000526020600020905b8154815290600101906020018083116108be57829003601f168201915b5050505050908060030180546108f090611583565b80601f016020809104026020016040519081016040528092919081815260200182805461091c90611583565b80156109695780601f1061093e57610100808354040283529160200191610969565b820191906000526020600020905b81548152906001019060200180831161094c57829003601f168201915b5050505050908060040154908060050160009054906101000a900473ffffffffffffffffffffffffffffffffffffffff16908060060154908060070160009054906101000a900460ff16905088565b6109c0610cb2565b6002600083815260200190815260200160002060070160009054906101000a900460ff16610a23576040517f08c379a0000000000000000000000000000000000000000000000000000000008152600401610a1a906118c6565b60405180910390fd5b600260008381526020019081526020016000206040518061010001604052908160008201548152602001600182018054610a5c90611583565b80601f0160208091040260200160405190810160405280929190818152602001828054610a8890611583565b8015610ad55780601f10610aaa57610100808354040283529160200191610ad5565b820191906000526020600020905b815481529060010190602001808311610ab857829003601f168201915b50505050508152602001600282018054610aee90611583565b80601f0160208091040260200160405190810160405280929190818152602001828054610b1a90611583565b8015610b675780601f10610b3c57610100808354040283529160200191610b67565b820191906000526020600020905b815481529060010190602001808311610b4a57829003601f168201915b50505050508152602001600382018054610b8090611583565b80601f0160208091040260200160405190810160405280929190818152602001828054610bac90611583565b8015610bf95780601f10610bce57610100808354040283529160200191610bf9565b820191906000526020600020905b815481529060010190602001808311610bdc57829003601f168201915b50505050508152602001600482015481526020016005820160009054906101000a900473ffffffffffffffffffffffffffffffffffffffff1673ffffffffffffffffffffffffffffffffffffffff1673ffffffffffffffffffffffffffffffffffffffff168152602001600682015481526020016007820160009054906101000a900460ff1615151515815250509050919050565b60008054906101000a900473ffffffffffffffffffffffffffffffffffffffff1681565b6040518061010001604052806000815260200160608152602001606081526020016060815260200160008152602001600073ffffffffffffffffffffffffffffffffffffffff168152602001600081526020016000151581525090565b6000604051905090565b600080fd5b600080fd5b6000819050919050565b610d3681610d23565b8114610d4157600080fd5b50565b600081359050610d5381610d2d565b92915050565b600060208284031215610d6f57610d6e610d19565b5b6000610d7d84828501610d44565b91505092915050565b6000819050919050565b610d9981610d86565b82525050565b6000602082019050610db46000830184610d90565b92915050565b600080fd5b600080fd5b6000601f19601f8301169050919050565b7f4e487b7100000000000000000000000000000000000000000000000000000000600052604160045260246000fd5b610e0d82610dc4565b810181811067ffffffffffffffff82111715610e2c57610e2b610dd5565b5b80604052505050565b6000610e3f610d0f565b9050610e4b8282610e04565b919050565b600067ffffffffffffffff821115610e6b57610e6a610dd5565b5b610e7482610dc4565b9050602081019050919050565b82818337600083830152505050565b6000610ea3610e9e84610e50565b610e35565b905082815260208101848484011115610ebf57610ebe610dbf565b5b610eca848285610e81565b509392505050565b600082601f830112610ee757610ee6610dba565b5b8135610ef7848260208601610e90565b91505092915050565b60008060008060808587031215610f1a57610f19610d19565b5b600085013567ffffffffffffffff811115610f3857610f37610d1e565b5b610f4487828801610ed2565b945050602085013567ffffffffffffffff811115610f6557610f64610d1e565b5b610f7187828801610ed2565b935050604085013567ffffffffffffffff811115610f9257610f91610d1e565b5b610f9e87828801610ed2565b9250506060610faf87828801610d44565b91505092959194509250565b610fc481610d23565b82525050565b600081519050919050565b600082825260208201905092915050565b60005b83811015611004578082015181840152602081019050610fe9565b60008484015250505050565b600061101b82610fca565b6110258185610fd5565b9350611035818560208601610fe6565b61103e81610dc4565b840191505092915050565b600073ffffffffffffffffffffffffffffffffffffffff82169050919050565b600061107482611049565b9050919050565b61108481611069565b82525050565b60008115159050919050565b61109f8161108a565b82525050565b6000610100830160008301516110be6000860182610fbb565b50602083015184820360208601526110d68282611010565b915050604083015184820360408601526110f08282611010565b9150506060830151848203606086015261110a8282611010565b915050608083015161111f6080860182610fbb565b5060a083015161113260a086018261107b565b5060c083015161114560c0860182610fbb565b5060e083015161115860e0860182611096565b508091505092915050565b6000602082019050818103600083015261117d81846110a5565b905092915050565b61118e81610d23565b82525050565b60006020820190506111a96000830184611185565b92915050565b6111b881610d86565b81146111c357600080fd5b50565b6000813590506111d5816111af565b92915050565b6000602082840312156111f1576111f0610d19565b5b60006111ff848285016111c6565b91505092915050565b600082825260208201905092915050565b600061122482610fca565b61122e8185611208565b935061123e818560208601610fe6565b61124781610dc4565b840191505092915050565b61125b81611069565b82525050565b61126a8161108a565b82525050565b600061010082019050611286600083018b611185565b8181036020830152611298818a611219565b905081810360408301526112ac8189611219565b905081810360608301526112c08188611219565b90506112cf6080830187611185565b6112dc60a0830186611252565b6112e960c0830185611185565b6112f660e0830184611261565b9998505050505050505050565b60006020820190506113186000830184611252565b92915050565b7f4f6e6c792061646d696e2063616e20706572666f726d2074686973206163746960008201527f6f6e000000000000000000000000000000000000000000000000000000000000602082015250565b600061137a602283611208565b91506113858261131e565b604082019050919050565b600060208201905081810360008301526113a98161136d565b9050919050565b7f4e487b7100000000000000000000000000000000000000000000000000000000600052601160045260246000fd5b60006113ea82610d23565b91507fffffffffffffffffffffffffffffffffffffffffffffffffffffffffffffffff820361141c5761141b6113b0565b5b600182019050919050565b6000819050919050565b61144261143d82610d23565b611427565b82525050565b600081905092915050565b600061145e82610fca565b6114688185611448565b9350611478818560208601610fe6565b80840191505092915050565b60006114908289611431565b6020820191506114a08288611453565b91506114ac8287611453565b91506114b88286611453565b91506114c48285611431565b6020820191506114d48284611431565b602082019150819050979650505050505050565b7f436572746966696361746520616c726561647920657869737473000000000000600082015250565b600061151e601a83611208565b9150611529826114e8565b602082019050919050565b6000602082019050818103600083015261154d81611511565b9050919050565b7f4e487b7100000000000000000000000000000000000000000000000000000000600052602260045260246000fd5b6000600282049050600182168061159b57607f821691505b6020821081036115ae576115ad611554565b5b50919050565b60008190508160005260206000209050919050565b60006020601f8301049050919050565b600082821b905092915050565b6000600883026116167fffffffffffffffffffffffffffffffffffffffffffffffffffffffffffffffff826115d9565b61162086836115d9565b95508019841693508086168417925050509392505050565b6000819050919050565b600061165d61165861165384610d23565b611638565b610d23565b9050919050565b6000819050919050565b61167783611642565b61168b61168382611664565b8484546115e6565b825550505050565b600090565b6116a0611693565b6116ab81848461166e565b505050565b5b818110156116cf576116c4600082611698565b6001810190506116b1565b5050565b601f821115611714576116e5816115b4565b6116ee846115c9565b810160208510156116fd578190505b611711611709856115c9565b8301826116b0565b50505b505050565b600082821c905092915050565b600061173760001984600802611719565b1980831691505092915050565b60006117508383611726565b9150826002028217905092915050565b61176982610fca565b67ffffffffffffffff81111561178257611781610dd5565b5b61178c8254611583565b6117978282856116d3565b600060209050601f8311600181146117ca57600084156117b8578287015190505b6117c28582611744565b86555061182a565b601f1984166117d8866115b4565b60005b82811015611800578489015182556001820191506020850194506020810190506117db565b8683101561181d5784890151611819601f891682611726565b8355505b6001600288020188555050505b505050505050565b6000602082019050818103600083015261184c8184611219565b905092915050565b7f436572746966696361746520646f6573206e6f74206578697374206f7220697360008201527f20696e76616c6964000000000000000000000000000000000000000000000000602082015250565b60006118b0602883611208565b91506118bb82611854565b604082019050919050565b600060208201905081810360008301526118df816118a3565b905091905056fea2646970667358221220684353f92784017d1f3e1a7b48c1d8bb3df1d09d0f3804056410f9639f786bea64736f6c63430008140033",
  "linkReferences": {},
  "deployedLinkReferences": {}
}