{
  "_format": "hh-sol-artifact-1",
  "contractName": "EniadDiplomas",
  "sourceName": "contracts/EniadDiplomas.sol",
  "abi": [
    {
      "inputs": [],
      "stateMutability": "nonpayable",
      "type": "constructor"
    },
    {
      "anonymous": false,
      "inputs": [
        {
          "indexed": true,
          "internalType": "bytes32",
          "name": "certificateId",
          "type": "bytes32"
        },
        {
          "indexed": false,
          "internalType": "string",
          "name": "studentName",
          "type": "string"
        },
        {
          "indexed": false,
          "internalType": "string",
          "name": "major",
          "type": "string"
        },
        {
          "indexed": false,
          "internalType": "uint256",
          "name": "timestamp",
          "type": "uint256"
        }
      ],
      "name": "DiplomaIssued",
      "type": "event"
    },
    {
      "anonymous": false,
      "inputs": [
        {
          "indexed": true,
          "internalType": "bytes32",
          "name": "certificateId",
          "type": "bytes32"
        },
        {
          "indexed": false,
          "internalType": "uint256",
          "name": "timestamp",
          "type": "uint256"
        }
      ],
      "name": "DiplomaRevoked",
      "type": "event"
    },
    {
      "inputs": [],
      "name": "admin",
      "outputs": [
        {
          "internalType": "address",
          "name": "",
          "type": "address"
        }
      ],
      "stateMutability": "view",
      "type": "function"
    },
    {
      "inputs": [
        {
          "internalType": "bytes32",
          "name": "",
          "type": "bytes32"
        }
      ],
      "name": "diplomas",
      "outputs": [
        {
          "internalType": "string",
          "name": "studentName",
          "type": "string"
        },
        {
          "internalType": "string",
          "name": "major",
          "type": "string"
        },
        {
          "internalType": "uint256",
          "name": "startYear",
          "type": "uint256"
        },
        {
          "internalType": "uint256",
          "name": "endYear",
          "type": "uint256"
        },
        {
          "internalType": "uint256",
          "name": "issueDate",
          "type": "uint256"
        },
        {
          "internalType": "bool",
          "name": "isValid",
          "type": "bool"
        }
      ],
      "stateMutability": "view",
      "type": "function"
    },
    {
      "inputs": [
        {
          "internalType": "string",
          "name": "_studentName",
          "type": "string"
        },
        {
          "internalType": "string",
          "name": "_major",
          "type": "string"
        },
        {
          "internalType": "uint256",
          "name": "_startYear",
          "type": "uint256"
        },
        {
          "internalType": "uint256",
          "name": "_endYear",
          "type": "uint256"
        }
      ],
      "name": "issueDiploma",
      "outputs": [
        {
          "internalType": "bytes32",
          "name": "",
          "type": "bytes32"
        }
      ],
      "stateMutability": "nonpayable",
      "type": "function"
    },
    {
      "inputs": [
        {
          "internalType": "bytes32",
          "name": "_certificateId",
          "type": "bytes32"
        }
      ],
      "name": "revokeDiploma",
      "outputs": [],
      "stateMutability": "nonpayable",
      "type": "function"
    },
    {
      "inputs": [
        {
          "internalType": "bytes32",
          "name": "_certificateId",
          "type": "bytes32"
        }
      ],
      "name": "verifyDiploma",
      "outputs": [
        {
          "internalType": "bool",
          "name": "isValid",
          "type": "bool"
        },
        {
          "internalType": "string",
          "name": "studentName",
          "type": "string"
        },
        {
          "internalType": "string",
          "name": "major",
          "type": "string"
        },
        {
          "internalType": "uint256",
          "name": "startYear",
          "type": "uint256"
        },
        {
          "internalType": "uint256",
          "name": "endYear",
          "type": "uint256"
        },
        {
          "internalType": "uint256",
          "name": "issueDate",
          "type": "uint256"
        }
      ],
      "stateMutability": "view",
      "type": "function"
    }
  ],
  "bytecode": "0x608060405234801561001057600080fd5b50600080546001600160a01b03191633179055610b3b806100326000396000f3fe608060405234801561001057600080fd5b50600436106100575760003560e01c80636e1cca251461005c578063885d344e1461008a578063c487da79146100ab578063e89cc997146100c0578063f851a440146100e5575b600080fd5b61006f61006a3660046106d1565b610110565b6040516100819695949392919061073a565b60405180910390f35b61009d61009836600461082a565b610258565b604051908152602001610081565b6100be6100b93660046106d1565b61040c565b005b6100d36100ce3660046106d1565b6104e8565b6040516100819695949392919061089e565b6000546100f8906001600160a01b031681565b6040516001600160a01b039091168152602001610081565b60016020526000908152604090208054819061012b906108ea565b80601f0160208091040260200160405190810160405280929190818152602001828054610157906108ea565b80156101a45780601f10610179576101008083540402835291602001916101a4565b820191906000526020600020905b81548152906001019060200180831161018757829003601f168201915b5050505050908060010180546101b9906108ea565b80601f01602080910402602001604051908101604052809291908181526020018280546101e5906108ea565b80156102325780601f1061020757610100808354040283529160200191610232565b820191906000526020600020905b81548152906001019060200180831161021557829003601f168201915b505050506002830154600384015460048501546005909501549394919390925060ff1686565b600080546001600160a01b0316331461028c5760405162461bcd60e51b815260040161028390610924565b60405180910390fd5b60008585858542336040516020016102a996959493929190610966565b60408051601f1981840301815291815281516020928301206000818152600190935291206005015490915060ff161561032e5760405162461bcd60e51b815260206004820152602160248201527f4469706c6f6d6120494420636f6c6c6973696f6e202d2d2074727920616761696044820152603760f91b6064820152608401610283565b6040805160c081018252878152602080820188905281830187905260608201869052426080830152600160a083018190526000858152915291909120815181906103789082610a0f565b506020820151600182019061038d9082610a0f565b506040828101516002830155606083015160038301556080830151600483015560a0909201516005909101805460ff19169115159190911790555181907fcd4ba9a0fdc7e3ba756e0d66a436236d9f6b25b3cd7e095b5693d8fa1c82c249906103fb90899089904290610acf565b60405180910390a295945050505050565b6000546001600160a01b031633146104365760405162461bcd60e51b815260040161028390610924565b60008181526001602052604090206005015460ff166104905760405162461bcd60e51b8152602060048201526016602482015275111a5c1b1bdb5848191bd95cc81b9bdd08195e1a5cdd60521b6044820152606401610283565b60008181526001602052604090819020600501805460ff191690555181907fbe73650bdc4d79c2628a33a8a74b2d80ebcd514e4f59b8e405ee5ec08e908d2b906104dd9042815260200190565b60405180910390a250565b6000606080600080600080600160008981526020019081526020016000206040518060c0016040529081600082018054610521906108ea565b80601f016020809104026020016040519081016040528092919081815260200182805461054d906108ea565b801561059a5780601f1061056f5761010080835404028352916020019161059a565b820191906000526020600020905b81548152906001019060200180831161057d57829003601f168201915b505050505081526020016001820180546105b3906108ea565b80601f01602080910402602001604051908101604052809291908181526020018280546105df906108ea565b801561062c5780601f106106015761010080835404028352916020019161062c565b820191906000526020600020905b81548152906001019060200180831161060f57829003601f168201915b505050918352505060028201546020820152600382015460408201526004820154606082015260059091015460ff16151560809091015260a081015190915061069f57505060408051602080820183526000808352835191820190935282815291965094509250849150819050806106c8565b600181600001518260200151836040015184606001518560800151965096509650965096509650505b91939550919395565b6000602082840312156106e357600080fd5b5035919050565b60005b838110156107055781810151838201526020016106ed565b50506000910152565b600081518084526107268160208601602086016106ea565b601f01601f19169290920160200192915050565b60c08152600061074d60c083018961070e565b828103602084015261075f818961070e565b91505085604083015284606083015283608083015282151560a0830152979650505050505050565b634e487b7160e01b600052604160045260246000fd5b600082601f8301126107ae57600080fd5b813567ffffffffffffffff808211156107c9576107c9610787565b604051601f8301601f19908116603f011681019082821181831017156107f1576107f1610787565b8160405283815286602085880101111561080a57600080fd5b836020870160208301376000602085830101528094505050505092915050565b6000806000806080858703121561084057600080fd5b843567ffffffffffffffff8082111561085857600080fd5b6108648883890161079d565b9550602087013591508082111561087a57600080fd5b506108878782880161079d565b949794965050505060408301359260600135919050565b861515815260c0602082015260006108b960c083018861070e565b82810360408401526108cb818861070e565b60608401969096525050608081019290925260a0909101529392505050565b600181811c908216806108fe57607f821691505b60208210810361091e57634e487b7160e01b600052602260045260246000fd5b50919050565b60208082526022908201527f4f6e6c792041646d696e2063616e20706572666f726d2074686973206163746960408201526137b760f11b606082015260800190565b60008751610978818460208c016106ea565b87519083019061098c818360208c016106ea565b01958652505060208401929092526040830152606090811b6bffffffffffffffffffffffff19169082015260740192915050565b601f821115610a0a57600081815260208120601f850160051c810160208610156109e75750805b601f850160051c820191505b81811015610a06578281556001016109f3565b5050505b505050565b815167ffffffffffffffff811115610a2957610a29610787565b610a3d81610a3784546108ea565b846109c0565b602080601f831160018114610a725760008415610a5a5750858301515b600019600386901b1c1916600185901b178555610a06565b600085815260208120601f198616915b82811015610aa157888601518255948401946001909101908401610a82565b5085821015610abf5787850151600019600388901b60f8161c191681555b5050505050600190811b01905550565b606081526000610ae2606083018661070e565b8281036020840152610af4818661070e565b91505082604083015294935050505056fea26469706673582212200b50ac74c154a5db496bc41e87ae486e8143d08cba43f980e725f33af98c9e9c64736f6c63430008140033",
  "linkReferences": {},
  "deployedLinkReferences": {}
}