{
  "_format": "hh-sol-artifact-1",
  "contractName": "EniadDiplomas",
  "sourceName": "contracts/EniadDiplomas.sol",
  "abi": [
    {
      "inputs": [],
      "stateMutability": "nonpayable",
      "type": "constructor"
    },
    {
      "anonymous": false,
      "inputs": [
        {
          "indexed": true,
          "internalType": "bytes32",
          "name": "certificateId",
          "type": "bytes32"
        },
        {
          "indexed": false,
          "internalType": "string",
          "name": "studentName",
          "type": "string"
        },
        {
          "indexed": false,
          "internalType": "string",
          "name": "major",
          "type": "string"
        },
        {
          "indexed": false,
          "internalType": "uint256",
          "name": "timestamp",
          "type": "uint256"
        }
      ],
      "name": "DiplomaIssued",
      "type": "event"
    },
    {
      "anonymous": false,
      "inputs": [
        {
          "indexed": true,
          "internalType": "bytes32",
          "name": "certificateId",
          "type": "bytes32"
        },
        {
          "indexed": false,
          "internalType": "uint256",
          "name": "timestamp",
          "type": "uint256"
        }
      ],
      "name": "DiplomaRevoked",
      "type": "event"
    },
    {
      "inputs": [],
      "name": "admin",
      "outputs": [
        {
          "internalType": "address",
          "name": "",
          "type": "address"
        }
      ],
      "stateMutability": "view",
      "type": "function"
    },
    {
      "inputs": [
        {
          "internalType": "bytes32",
          "name": "",
          "type": "bytes32"
        }
      ],
      "name": "diplomas",
      "outputs": [
        {
          "internalType": "string",
          "name": "studentName",
          "type": "string"
        },
        {
          "internalType": "string",
          "name": "major",
          "type": "string"
        },
        {
          "internalType": "uint256",
          "name": "startYear",
          "type": "uint256"
        },
        {
          "internalType": "uint256",
          "name": "endYear",
          "type": "uint256"
        },
        {
          "internalType": "uint256",
          "name": "issueDate",
          "type": "uint256"
        },
        {
          "internalType": "bool",
          "name": "isValid",
          "type": "bool"
        }
      ],
      "stateMutability": "view",
      "type": "function"
    },
    {
      "inputs": [
        {
          "internalType": "string",
          "name": "_studentName",
          "type": "string"
        },
        {
          "internalType": "string",
          "name": "_major",
          "type": "string"
        },
        {
          "internalType": "uint256",
          "name": "_startYear",
          "type": "uint256"
        },
        {
          "internalType": "uint256",
          "name": "_endYear",
          "type": "uint256"
        }
      ],
      "name": "issueDiploma",
      "outputs": [
        {
          "internalType": "bytes32",
          "name": "",
          "type": "bytes32"
        }
      ],
      "stateMutability": "nonpayable",
      "type": "function"
    },
    {
      "inputs": [
        {
          "internalType": "bytes32",
          "name": "_certificateId",
          "type": "bytes32"
        }
      ],
      "name": "revokeDiploma",
      "outputs": [],
      "stateMutability": "nonpayable",
      "type": "function"
    },
    {
      "inputs": [
        {
          "internalType": "bytes32",
          "name": "_certificateId",
          "type": "bytes32"
        }
      ],
      "name": "verifyDiploma",
      "outputs": [
        {
          "internalType": "bool",
          "name": "isValid",
          "type": "bool"
        },
        {
          "internalType": "string",
          "name": "studentName",
          "type": "string"
        },
        {
          "internalType": "string",
          "name": "major",
          "type": "string"
        },
        {
          "internalType": "uint256",
          "name": "startYear",
          "type": "uint256"
        },
        {
          "internalType": "uint256",
          "name": "endYear",
          "type": "uint256"
        },
        {
          "internalType": "uint256",
          "name": "issueDate",
          "type": "uint256"
        }
      ],
      "stateMutability": "view",
      "type": "function"
    }
  ],
  "bytecode": "0x608060405234801561001057600080fd5b50336000806101000a81548173ffffffffffffffffffffffffffffffffffffffff021916908373ffffffffffffffffffffffffffffffffffffffff1602179055506112db806100606000396000f3fe608060405234801561001057600080fd5b50600436106100575760003560e01c80636e1cca251461005c578063885d344e14610091578063c487da79146100c1578063e89cc997146100dd578063f851a44014610112575b600080fd5b61007660048036038101906100719190610875565b610130565b60405161008896959493929190610966565b60405180910390f35b6100ab60048036038101906100a69190610b36565b610289565b6040516100b89190610be4565b60405180910390f35b6100db60048036038101906100d69190610875565b6104ab565b005b6100f760048036038101906100f29190610875565b610606565b60405161010996959493929190610bff565b60405180910390f35b61011a610807565b6040516101279190610caf565b60405180910390f35b600160205280600052604060002060009150905080600001805461015390610cf9565b80601f016020809104026020016040519081016040528092919081815260200182805461017f90610cf9565b80156101cc5780601f106101a1576101008083540402835291602001916101cc565b820191906000526020600020905b8154815290600101906020018083116101af57829003601f168201915b5050505050908060010180546101e190610cf9565b80601f016020809104026020016040519081016040528092919081815260200182805461020d90610cf9565b801561025a5780601f1061022f5761010080835404028352916020019161025a565b820191906000526020600020905b81548152906001019060200180831161023d57829003601f168201915b5050505050908060020154908060030154908060040154908060050160009054906101000a900460ff16905086565b60008060009054906101000a900473ffffffffffffffffffffffffffffffffffffffff1673ffffffffffffffffffffffffffffffffffffffff163373ffffffffffffffffffffffffffffffffffffffff161461031a576040517f08c379a000000000000000000000000000000000000000000000000000000000815260040161031190610d9c565b60405180910390fd5b600085858585423360405160200161033796959493929190610e61565b6040516020818303038152906040528051906020012090506001600082815260200190815260200160002060050160009054906101000a900460ff16156103b3576040517f08c379a00000000000000000000000000000000000000000000000000000000081526004016103aa90610f3b565b60405180910390fd5b6040518060c001604052808781526020018681526020018581526020018481526020014281526020016001151581525060016000838152602001908152602001600020600082015181600001908161040b9190611107565b5060208201518160010190816104219190611107565b5060408201518160020155606082015181600301556080820151816004015560a08201518160050160006101000a81548160ff021916908315150217905550905050807fcd4ba9a0fdc7e3ba756e0d66a436236d9f6b25b3cd7e095b5693d8fa1c82c249878742604051610497939291906111d9565b60405180910390a280915050949350505050565b60008054906101000a900473ffffffffffffffffffffffffffffffffffffffff1673ffffffffffffffffffffffffffffffffffffffff163373ffffffffffffffffffffffffffffffffffffffff1614610539576040517f08c379a000000000000000000000000000000000000000000000000000000000815260040161053090610d9c565b60405180910390fd5b6001600082815260200190815260200160002060050160009054906101000a900460ff1661059c576040517f08c379a00000000000000000000000000000000000000000000000000000000081526004016105939061126a565b60405180910390fd5b60006001600083815260200190815260200160002060050160006101000a81548160ff021916908315150217905550807fbe73650bdc4d79c2628a33a8a74b2d80ebcd514e4f59b8e405ee5ec08e908d2b426040516105fb919061128a565b60405180910390a250565b6000606080600080600080600160008981526020019081526020016000206040518060c001604052908160008201805461063f90610cf9565b80601f016020809104026020016040519081016040528092919081815260200182805461066b90610cf9565b80156106b85780601f1061068d576101008083540402835291602001916106b8565b820191906000526020600020905b81548152906001019060200180831161069b57829003601f168201915b505050505081526020016001820180546106d190610cf9565b80601f01602080910402602001604051908101604052809291908181526020018280546106fd90610cf9565b801561074a5780601f1061071f5761010080835404028352916020019161074a565b820191906000526020600020905b81548152906001019060200180831161072d57829003601f168201915b505050505081526020016002820154815260200160038201548152602001600482015481526020016005820160009054906101000a900460ff16151515158152505090508060a001516107d5576000806000806040518060200160405280600081525092919060405180602001604052806000815250929190965096509650965096509650506107fe565b600181600001518260200151836040015184606001518560800151965096509650965096509650505b91939550919395565b60008054906101000a900473ffffffffffffffffffffffffffffffffffffffff1681565b6000604051905090565b600080fd5b600080fd5b6000819050919050565b6108528161083f565b811461085d57600080fd5b50565b60008135905061086f81610849565b92915050565b60006020828403121561088b5761088a610835565b5b600061089984828501610860565b91505092915050565b600081519050919050565b600082825260208201905092915050565b60005b838110156108dc5780820151818401526020810190506108c1565b60008484015250505050565b6000601f19601f8301169050919050565b6000610904826108a2565b61090e81856108ad565b935061091e8185602086016108be565b610927816108e8565b840191505092915050565b6000819050919050565b61094581610932565b82525050565b60008115159050919050565b6109608161094b565b82525050565b600060c082019050818103600083015261098081896108f9565b9050818103602083015261099481886108f9565b90506109a3604083018761093c565b6109b0606083018661093c565b6109bd608083018561093c565b6109ca60a0830184610957565b979650505050505050565b600080fd5b600080fd5b7f4e487b7100000000000000000000000000000000000000000000000000000000600052604160045260246000fd5b610a17826108e8565b810181811067ffffffffffffffff82111715610a3657610a356109df565b5b80604052505050565b6000610a4961082b565b9050610a558282610a0e565b919050565b600067ffffffffffffffff821115610a7557610a746109df565b5b610a7e826108e8565b9050602081019050919050565b82818337600083830152505050565b6000610aad610aa884610a5a565b610a3f565b905082815260208101848484011115610ac957610ac86109da565b5b610ad4848285610a8b565b509392505050565b600082601f830112610af157610af06109d5565b5b8135610b01848260208601610a9a565b91505092915050565b610b1381610932565b8114610b1e57600080fd5b50565b600081359050610b3081610b0a565b92915050565b60008060008060808587031215610b5057610b4f610835565b5b600085013567ffffffffffffffff811115610b6e57610b6d61083a565b5b610b7a87828801610adc565b945050602085013567ffffffffffffffff811115610b9b57610b9a61083a565b5b610ba787828801610adc565b9350506040610bb887828801610b21565b9250506060610bc987828801610b21565b91505092959194509250565b610bde8161083f565b82525050565b6000602082019050610bf96000830184610bd5565b92915050565b600060c082019050610c146000830189610957565b8181036020830152610c2681886108f9565b90508181036040830152610c3a81876108f9565b9050610c49606083018661093c565b610c56608083018561093c565b610c6360a083018461093c565b979650505050505050565b600073ffffffffffffffffffffffffffffffffffffffff82169050919050565b6000610c9982610c6e565b9050919050565b610ca981610c8e565b82525050565b6000602082019050610cc46000830184610ca0565b92915050565b7f4e487b7100000000000000000000000000000000000000000000000000000000600052602260045260246000fd5b60006002820490506001821680610d1157607f821691505b602082108103610d2457610d23610cca565b5b50919050565b7f4f6e6c792041646d696e2063616e20706572666f726d2074686973206163746960008201527f6f6e000000000000000000000000000000000000000000000000000000000000602082015250565b6000610d866022836108ad565b9150610d9182610d2a565b604082019050919050565b60006020820190508181036000830152610db581610d79565b9050919050565b600081905092915050565b6000610dd2826108a2565b610ddc8185610dbc565b9350610dec8185602086016108be565b80840191505092915050565b6000819050919050565b610e13610e0e82610932565b610df8565b82525050565b60008160601b9050919050565b6000610e3182610e19565b9050919050565b6000610e4382610e26565b9050919050565b610e5b610e5682610c8e565b610e38565b82525050565b6000610e6d8289610dc7565b9150610e798288610dc7565b9150610e858287610e02565b602082019150610e958286610e02565b602082019150610ea58285610e02565b602082019150610eb58284610e4a565b601482019150819050979650505050505050565b7f4469706c6f6d6120494420636f6c6c6973696f6e202d2d20747279206167616960008201527f6e00000000000000000000000000000000000000000000000000000000000000602082015250565b6000610f256021836108ad565b9150610f3082610ec9565b604082019050919050565b60006020820190508181036000830152610f5481610f18565b9050919050565b60008190508160005260206000209050919050565b60006020601f8301049050919050565b600082821b905092915050565b600060088302610fbd7fffffffffffffffffffffffffffffffffffffffffffffffffffffffffffffffff82610f80565b610fc78683610f80565b95508019841693508086168417925050509392505050565b6000819050919050565b6000611004610fff610ffa84610932565b610fdf565b610932565b9050919050565b6000819050919050565b61101e83610fe9565b61103261102a8261100b565b848454610f8d565b825550505050565b600090565b61104761103a565b611052818484611015565b505050565b5b818110156110765761106b60008261103f565b600181019050611058565b5050565b601f8211156110bb5761108c81610f5b565b61109584610f70565b810160208510156110a4578190505b6110b86110b085610f70565b830182611057565b50505b505050565b600082821c905092915050565b60006110de600019846008026110c0565b1980831691505092915050565b60006110f783836110cd565b9150826002028217905092915050565b611110826108a2565b67ffffffffffffffff811115611129576111286109df565b5b6111338254610cf9565b61113e82828561107a565b600060209050601f831160018114611171576000841561115f578287015190505b61116985826110eb565b8655506111d1565b601f19841661117f86610f5b565b60005b828110156111a757848901518255600182019150602085019450602081019050611182565b868310156111c457848901516111c0601f8916826110cd565b8355505b6001600288020188555050505b505050505050565b600060608201905081810360008301526111f381866108f9565b9050818103602083015261120781856108f9565b9050611216604083018461093c565b949350505050565b7f4469706c6f6d6120646f6573206e6f7420657869737400000000000000000000600082015250565b60006112546016836108ad565b915061125f8261121e565b602082019050919050565b6000602082019050818103600083015261128381611247565b9050919050565b600060208201905061129f600083018461093c565b9291505056fea264697066735822122068c24fac40441eec9372f85c4873d09d2aa2d131771291f1a66da9e67c05e51064736f6c63430008140033",
  "linkReferences": {},
  "deployedLinkReferences": {}
}